:020000040800F2
:10000000F0110020D500000879450008BD35000832
:1000100000000000000000000000000000000000E0
:100020000000000000000000000000006F660008F3
:100030000000000000000000B5500008DD8000084E
:10004000E7000008E7000008FF560008E700000886
:10005000E7000008F5100008051100081511000858
:10006000E7000008E7000008E7000008E7000008D4
:10007000E7000008E7000008E7000008E7000008C4
:10008000E7000008E7000008E700000800000000A3
:10009000E7000008E7000008E7000008E7000008A4
:1000A000E7000008E7000008E7000008E700000894
:1000B0006B870008E700000800000000E700000868
:1000C0000348854600F02CFD00480047359700089E
:1000D000F01100200448804704480047FEE7FEE78F
:1000E000FEE7FEE7FEE7FEE771810008C1000008B9
:1000F00030B50B46014600202022012409E00D46C0
:10010000D5409D4205D31D469540491B2546954047
:1001100040191546521E002DF1DC30BD70B500248B
:100120002546002801DA01244042002901DA012590
:100130004942FFF7DDFFAC4200D04042002C00D026
:10014000494270BDF0B51FB40646002082B0054696
:100150004024019100901BE0019922460F46304651
:1001600000F0A8FB049A059B801A994110D3104611
:100170001946224600F08EFB361A8F41019722461F
:1001800001200021009F00F085FB38184D410090B0
:100190002046641E0028DFDC019B00982946324679
:1001A00007B0F0BD03460B439B0703D009E008C925
:1001B000121F08C0042AFAD203E00B780370401C17
:1001C000491C521EF9D27047D2B201E00270401CA5
:1001D000491EFBD270470022F6E710B513460A46C7
:1001E00004461946FFF7F0FF204610BD0321001D0D
:1001F000401E037812021A43491EF9D51046704773
:10020000F8B502464A40D40F42004B0052085B0842
:100210009A4202D20246084611464A0023D0C30D34
:100220004A00DDB2120EAD1A202D35DA4902012640
:10023000490AF6058A19002C00D0524220214F1B92
:100240001146B9402A411018C20D9A4221D0002C03
:1002500017D0012D08DCDA05801AD20F8019D207D9
:10026000DBB200F053FBF8BDDA05801A0123400031
:100270001B06C01880185A428018CA0F1043490044
:1002800007E04908C2071143DA05801A80194008BF
:10029000801800F033FBF8BD61000122511A001BE9
:1002A000F7E70122D2075140AAE70122D2075040C6
:1002B000A6E7024670B54A40D30FDB0740002DD0B9
:1002C0004A002AD0010E140E000212020919400A37
:1002D000520A8418E50104465443000A120A2E0407
:1002E0005043A4194219200CC543AA18120C012529
:1002F000AD03521C521912047F39240400D0521C41
:10030000104301D44000491EC2B20C06C009201897
:10031000401C4008802A02D003E0002070BD400845
:100320004000002900DA0020184370BD70B5024675
:100330004A40D50F40004A00ED0740085208002807
:1003400014D0002A12D0C40DD30D41020120C005E3
:100350005202490A520AE41A091812187D349142CD
:1003600001D3641C00E04900002C01DA002070BDBC
:100370000023914201D3891A034340084900002811
:10038000F7D100290AD0914202D10121C90705E025
:10039000914201D2012101E00121C943E005C018C9
:1003A000401900F0ABFA70BD420005D04200120EB9
:1003B00052428A4201DB00207047C9050818704785
:1003C000F0B507460846584087B0C00F0490480073
:1003D0000E46590040084908BC1A884105D23846E3
:1003E00031461E4617460B46024658004008104349
:1003F0004CD0300D039040055900400D490D05903B
:10040000401A0290402872DA18030121000B0905F6
:100410000843019004980092002805D001995242A7
:100420000020884100920190029840210A1A019907
:10043000009800F02FFA05460C466B4607CB00F0FB
:100440004AFAC0197141039A0E0D0023D71756407E
:100450001A467A40164344D0049A002A2DD0029AB4
:10046000012A039A15DC1205C01A914101263605AE
:10047000001C7141D20F059ED20700930192029693
:100480002A46234600F088FA07B0F0BD38463146C8
:10049000FAE71605224A0F46B218C01AB7410121E1
:1004A0000905001C4F4100187F4111461818794179
:1004B000E20F10436D19644113E0E2076D08154324
:1004C0006408C2071443039A01261205C01A914119
:1004D0003605001C7141CE07400830434908C0185A
:1004E00051412A46234600F04AFACDE7FFE7049837
:1004F00001224000C117121A00238B410498314693
:10050000C417381AA141EEE730B40124E407634070
:1005100030BC55E730B40124E407614030BC4FE7FC
:100520000000E0FFF0B51FB488B00B9909980024D3
:1005300048400999C00F490049080991C0070B9923
:100540000090490049080B9109990898A64608436C
:100550001CD00B990A98084318D009980124400030
:10056000420D4800410D099824050003000B20436B
:1005700009900B980003000B20430B9050181C4966
:100580004018002201901446104605E00020014664
:100590000DB0F0BD032801DA034600E003239C46BA
:1005A000C11A0AAE0AE05F0008ADED5B4F00F75BD1
:1005B0007D430027AA187C41491C5B1E6145F2DD82
:1005C000410004AB5A522104120C0A43240C401C73
:1005D0000828DFDB01980290009970460191009095
:1005E000059B049A0799069800F0D6F9D0E7000019
:1005F0000DFCFFFFF0B50C465C4085B0E40FE4074E
:1006000003944C00002664085900944649080246A9
:100610000296224321D062460A431ED06200570D43
:100620004A000E032303550D012402462C492405DC
:10063000781B1B0B360B4018234326436146009062
:100640001C46501AB44103D30098401C009002E0AD
:10065000921800985B41002803DA0020014605B09B
:10066000F0BD0020012109050746864611E06446D9
:100670001D46141BB54106D36546521BB341744653
:1006800007430C43A646CD07400849082843921863
:100690005B4105460D43EAD11046184313D060462E
:1006A000194650407140084306D06046101AB341C5
:1006B00006D20122002306E000220123DB0702E02C
:1006C0000122D2435310009874460105381C614141
:1006D000029C039D0019694100F051F9BFE7000039
:1006E000FD03000070B54B005B0803430BD04B00CB
:1006F0005C0D002633466542B341D417AD1AA341C1
:1007000002DB0020014670BD12053018514170BD5A
:1007100010B500229623114600F0F8F810BD000035
:100720000EB5C217C10F5040CA0740180021054B33
:100730000293019200910A460B4600F02DF903B096
:1007400000BD0000330400000EB5054902910021F0
:1007500000910A460B46019100F01EF903B000BD5E
:1007600033040000C20F410040020123400ADB05B0
:10077000D207090EC0187F2901DA00207047962998
:1007800003DC9623591AC84001E096398840002AB4
:10079000F4D040427047410040020122400AD20595
:1007A000090E80187F2901DA00207047962903DCA2
:1007B0009622511AC8407047963988407047000009
:1007C00070B5CD0F4A0009030123090B1B0519431E
:1007D0000B4BED070024520D9A4201DA002070BD48
:1007E000074B34339A4203DC9A1A00F063F802E0B4
:1007F0000449511888402C43F1D0404270BD00009C
:10080000FF030000CDFBFFFF4A0009030123090B92
:100810001B051943094B10B5520D9A4201DA00200D
:1008200010BD064B34339A4203DC9A1A00F042F8AA
:1008300010BD03495118884010BD0000FF0300009F
:10084000CDFBFFFFC20FD207400040080BD0C10D07
:100850000723DB01C91840020905400A1143C208F9
:1008600040071143704700200146704710B500292A
:1008700004DB0124E40740428C412146002B04DBC9
:100880001C460123DB075242A341994200D190420A
:1008900010BD000010B5202A04DB0146203A91402B
:1008A000002010BD914020239C1A0346E3401943C9
:1008B000904010BD10B5202A04DB0846203AD040F5
:1008C000002110BD0B46D340D0402024A21A9140F5
:1008D0000843194610BD10B5202A06DBCB17084681
:1008E000203A1041C1170B4306E00B461341D0409C
:1008F0002024A21A91400843194610BD002904DAA9
:10090000401C490001D140084000704770B40024E9
:10091000050C05D11024000402D1002921D0112496
:10092000050E01D100020834050F01D10001241D7C
:10093000850F01D18000A41C002801DB4000641C4D
:10094000002908D020252E1B0D46F540A14000D0DF
:1009500001212943084301061B1B000ADB1D02D5A8
:10096000002070BC7047DB05181880180029F8DAE1
:10097000401C4900F5D170BC40084000704710B5DC
:10098000002B08DA0024401C614192185B411A4395
:1009900001D14008400010BDF0B51FB482B005463B
:1009A0000C0003D0084607F01BFF02E007F018FF19
:1009B00020300246009021462846FFF76BFF049B3B
:1009C000059A04460F4618431143084314D01846AD
:1009D00010431BD0009840210A1A18460599FFF7CA
:1009E00069FF05460E46009A05990498FFF752FFE5
:1009F000084305D0012004E02046394607B0F0BD89
:100A00000020C11705430E432C43374300990E982D
:100A10006305401A7905E40A00220C43FD0A0A30F6
:100A200002D500200146E9E70105101969410C9C37
:100A30000D9D00196941FFF7A2FFDFE7F8B50546F4
:100A4000480040080C46284304D06000184A400D76
:100A5000904201DD2846F8BD15493539884210DC41
:100A600088420BDB290D200308432903014305D0ED
:100A7000E00F1049C00741180020F8BD00200146D2
:100A8000F8BD161A4020821B28462146FFF702FFB8
:100A900007460091284621463246FFF70BFF3A46AB
:100AA000009BFFF76CFF3246FFF7F4FEF8BD000035
:100AB000330400000000F03F4A0009030123090B42
:100AC0001B0519430A4B10B5520D9A4202DA002059
:100AD000014610BD064B34339A4203DC9A1AFFF7E5
:100AE000E9FE10BD034BD218FFF7D4FE10BD000085
:100AF000FF030000CDFBFFFF10B5002904DB01243C
:100B0000E40740428C412146002B04DB1C460123B4
:100B1000DB075242A3418B4200D1824210BD00004C
:100B2000064C0125064E05E0E36807CC2B430C3C40
:100B300098471034B442F7D3FFF7C6FA74A20008FE
:100B400094A2000870B58C180578401C6B075B0FE9
:100B500001D10378401C2A1106D10278401C03E021
:100B600006780E70401C491C5B1EF9D12B0705D47A
:100B70000023521E0DD40B70491CFAE70378401C69
:100B8000CB1A921C03E01D780D70491C5B1C521E91
:100B9000F9D5A142D8D3002070BD000038B5044675
:100BA000064805490068FFF7A3FA604300E0401ECD
:100BB00000900028FBD138BD40420F004C000020BF
:100BC000F8B50446006881688907890F012902D1B8
:100BD0000168C90722D18168114A102611400125F8
:100BE00000290ED18168294381600120FFF7D6FFDB
:100BF00000F0ECFD07460CE000F0E8FDC01B0A2801
:100C000007D9A06D3043A065E06D2843E065012061
:100C1000F8BD20680068C043C007EDD10020F8BDD2
:100C200017000080F0B589B00C460746102200215D
:100C3000684608F0CDFD69462246084608F077FA76
:100C40006846007887260106684600290FDA0021E9
:100C50004318425C5B785200DB091A434254491C3A
:100C60000F29F5DBC17B0246490071400DE00021F0
:100C70004318425C5B785200DB091A434254491C1A
:100C80000F29F5DBC17B02464900D173E21DF93221
:100C90005169102912D0017809061BD50021451889
:100CA000435C6D785B00ED092B434354491C0F29CD
:100CB000F5DBC17B03464900714019E00021621851
:100CC000FF3201325378455C491C6B405370102948
:100CD000F5DB26E000214518435C6D785B00ED09EB
:100CE0002B434354491C0F29F5DBC17B03464900C4
:100CF000D973E11D55698023FA316B54002500E05A
:100D00005D5453695B1C5361102BF9D300216218A9
:100D1000FF3201325378455C491C6B4053701029F7
:100D2000F5DB002162181046FF32E0300132437CCF
:100D30005278491C534043741029F3DB214610229A
:100D4000F13104A808F02CFD2246394604A808F029
:100D5000EEF910220021684608F03AFD09B0F0BD16
:100D600010B5044610220021F13008F031FDFF20BB
:100D7000002115300151F022204608F029FD10BD58
:100D80000B4610B502461021184608F0FBF910BDBD
:100D9000F0B50446FF308BB00F4601300890E11DDE
:100DA0004069FA310091103915460791002843D067
:100DB00010210E1AAE4200D316460099B2B2401866
:100DC000394608F0EDFC0898089940698019486197
:100DD00010283AD3B54238D0002162181046FF32AD
:100DE000E0300132437C5278491C5340437410294F
:100DF000F3DB07992246084608F099F9BF19AD1BA5
:100E00001AE000202118E0314A7C3B5C401C5A402B
:100E10004A741028F6DB102202A8079908F0C0FCDB
:100E200002A92246084608F082F9102202A9079872
:100E300008F0B6FC103D1037102DE2D8AAB23946A2
:100E4000009808F0ADFC089845610BB0F0BD0000BB
:100E5000F7B52B498022497A294B511ACDB2197A1C
:100E60005B7A8026F31A0A46DEB2871E491C0124EB
:100E7000C9B2761E3B0007F0E2FC09060C06161A02
:100E80000C2906363F001E4BAA4237D21D4CA054F7
:100E900007E01B4BB24231DA1A4CA054019860545F
:100EA000491C19721AE0164BB2421FDB26E0144EA1
:100EB000AD1EAA4222DA134B985401985854491C8B
:100EC000C8B202991954401C307207E00C4BAA4278
:100ED00014D20C4CA054197207F0ACF80024084846
:100EE0000121C1710AE0064BAA4207D2054CA05469
:100EF00001986054491CEEE70220FEBD2046FEBD6D
:100F0000BC000020EE08002010B502221449012385
:100F100086B000281ED0012804D002281AD0032849
:100F200007D117E0CA6A1A43CA62C96AC907C90F5A
:100F3000059141000B4A8000515A00910021029115
:100F400003210391084901930858694600F076FB94
:100F500006B010BDCC6A1443CC62C96A1140E7E701
:100F6000001002409C9E00083C00002010B5054A7D
:100F70004100515A044A80001058002200F020FC21
:100F800010BD00009C9E00083C00002010B5054AE2
:100F90004100515A044A80001058012200F010FC10
:100FA00010BD00009C9E00083C000020704700001F
:100FB0000649044B044A0EC00549016005494160D9
:100FC00070470000000082420000C041008076446B
:100FD0000D093E00AB030500FFB5002085B0009071
:100FE000054606460190002477000698C15B012063
:100FF000A04001422AD028190C21039048430799A8
:101000000958002922D00799411808200291085652
:10101000021100070117059840B204F0A4FD002852
:1010200014D00298407A010108980818C068002876
:1010300004D00198401CC0B2019007E0009A0E99BC
:10104000039888540098401CC0B20090641CE4B21D
:10105000102CCAD31035761CEDB2F6B2082DC2D3CF
:101060000F9901980870009809B0F0BD30B587B0AD
:1010700014216846FFF7AFF81A4CE16A02200143D9
:10108000E162E16A184D01400120019002900320C5
:10109000039005910F20000300906946284600F058
:1010A000CDFA0022A114284600F08AFB012100227B
:1010B0004903284600F084FB00222901284600F05D
:1010C0007FFB00226901284600F07AFB606B290350
:1010D0000843606300F08AFA00F098FA00F08EFA94
:1010E00007B030BD001002400004005010B502F0FF
:1010F0000FF810BD10B5012000F094FA022000F0A6
:1011000091FA10BD10B5042000F08CFA082000F010
:1011100089FA10BD10B5102000F084FA202000F0EC
:1011200081FA402000F07EFA802000F07BFAFF2058
:10113000013000F077FA0120400200F073FA01203C
:10114000800200F06FFA0120C00200F06BFA01206B
:10115000000300F067FA0120400300F063FA012069
:10116000800300F05FFA0120C00300F05BFA10BDBD
:10117000FEE700000649800009580648091803D018
:10118000C14203D000207047012070470220704701
:10119000009F0008702FFCFF10B5094A0021CB000A
:1011A000D458844207D89B189B68834203D9C8004F
:1011B0008018007910BD491CC9B21529EFD3FEE78C
:1011C000749D0008F8B5054604464035287D002684
:1011D000012808D001202875206881688907890FB7
:1011E00001290ED101E00220F8BD0168C90708D02D
:1011F000A06D20210843A0650126002028753046F7
:10120000F8BDA16DFF220132914302221143A16575
:10121000C1688907890F0091C16889088900C16088
:101220002068816892071143816000F0CFFA074679
:101230000EE000F0CBFAC01B0A2809D9A06D0221EC
:10124000884310210843A065002028750120F8BDBF
:10125000206880680028ECDB2068C168009A114390
:10126000C160A06D80088000401CA065C5E700003B
:10127000F8B506460D464036317D01290DD00121D5
:10128000317501688A68520709D5816D20221143A2
:101290008165002030750120F8BD0220F8BD174B94
:1012A0006A68D80547109A42154C8A6A2B6812D092
:1012B0005B035B0B1A438A622968490305D5A16861
:1012C0000143A1600A20FFF769FC2868800312D55A
:1012D000A06838430EE05B035B0B9A438A6229687F
:1012E000490302D5A1688143A1602868800302D523
:1012F000A068B843A06000203075F8BD0110000060
:10130000002701400068006C7047000070B50400C1
:1013100006D0A06D264600254036002802D006E003
:10132000012070BDE5653575204600F0D1F8A06D4F
:10133000C00603D421688868400705D5A06D102138
:101340000843A0653575EBE7A06DFF22013290439D
:1013500002221043A06588688207920F5A48012A2A
:1013600002D10A68D2072BD1032362689B079A42F5
:1013700005D05B429A4202D05B009A4209D10A69C9
:10138000920092080A6121680A6963681A430A6137
:101390000CE00A69920092080A6181680F229204A7
:1013A0009143816081686268114381602168CA68E5
:1013B00018239A43CA602168CA68A3681A43CA609E
:1013C000816801225206914381608168228F520612
:1013D0001143816020688168C90004D481680122BA
:1013E0001207114381602068C168384A1140C1600A
:1013F0002169E068022923D000210843216A226B79
:101400004903520011430843616B0843A1698903F2
:101410000843E169C90308432168CA681043C860EA
:10142000A06A0146FF39C23905D0E16A0843216844
:10143000CA681043C860606A0121012802D00BE02D
:101440000421DAE7206A002823D0A06D202210436F
:10145000A065E06D0843E065206C012820681FD07E
:101460000169C90703D00169490849000161206881
:101470004169C908C900416120684169E26B1143B3
:101480004161E565A06D80088000401CA0650020DA
:1014900070BD2068C26801231B041A43C260DBE7E9
:1014A0000269FF239B009A43026120680269636C12
:1014B000E66C1A43A36C33431A4302612068026945
:1014C0000A430261D3E70000002701401902FEFF32
:1014D0007047F8B504464069254640350E46082851
:1014E0000BD02068C068C00709D0A06D2021084338
:1014F000A065002028750120F8BD082700E00C2712
:1015000000F064F9009011E0701C0FD0002E05D09F
:1015100000F05CF90099401AB04207D9A06D04218F
:101520000843A065002028750320F8BD20680068E6
:101530003842E9D0A06D012149020843A065206826
:10154000C16809058A0F0C21002A1AD1226A002AD3
:1015500017D10268120714D5826853070122002BA5
:1015600008DB43688B434360A06D1302984310432C
:10157000A06506E0A06D20231843A065E06D104330
:10158000E065A069002801D1206801600020F8BD55
:1015900070B50446216800208968490721D4254692
:1015A0004035297D01291CD001212975E1690129D6
:1015B00004D02046FFF704FB002811D1A16D0A4A90
:1015C0001140FF2201321143A1650021E165297517
:1015D00022681C21116021688A6804231A438A60EA
:1015E00070BD022070BD0000FEF1FFFF024841689F
:1015F0000122114341607047005801400248416890
:10160000042211434160704700580140024841687C
:1016100002221143416070470058014010B501F0AB
:1016200049FC10BD10B504494A69024202D0486124
:10163000FFF7F4FF10BD000000040140F8B50023DF
:101640000124A7E027469F403A4070D04D68022D04
:1016500001D0122D14D1DD08AD002D1800952D6A92
:101660005E07AC46F50E0F26AE46AE406546B54366
:10167000AC460E697546AE4065462E43009D2E620F
:101680004D68012D05D0022D03D0112D01D0122D52
:1016900016D185680326AC465D00AE46AE40654671
:1016A000B543AC46CE687546AE4065462E4386606F
:1016B00046680D79BE43ED06ED0F9D40354345600C
:1016C00006685F000325BD40AE46AE430D79B446C3
:1016D000AE07B60FBE4065462E430660C668754627
:1016E000AE438D68BD403543C5604D68ED0050D5B3
:1016F0002B4D6E6B26436E639E082A4DB6007519FE
:10170000AC46AD689E07360F0F27B740BD4305278F
:101710003F07B84201D100271AE0234FB84201D158
:10172000012715E0214FB84202D1022710E030E036
:101730001F4FB84201D103270AE01E4FB84201D122
:10174000042705E01C4FB84201D1052700E0062719
:10175000B7402F436546AF60184D2E684F689643DB
:10176000FF0300D516432E606E684F689643BF0393
:1017700000D516436E60AE684F689643FF0200D5F1
:101780001643AE60EE684F689643BF0200D516431D
:10179000EE605B1C0A681546DD4000D052E7F8BDDC
:1017A00000100240000001400004005000080050FA
:1017B000000C005000100050001C005000040140BC
:1017C000002A01D08161704781627047014800683A
:1017D000704700005000002002480168491C016069
:1017E000704700005000002010B506480168022232
:1017F00011430160032000F007F800F007F8002013
:1018000010BD0000002002400020704710B50B48BA
:10181000816B02041143816300F046F800F03CF84C
:101820000748026808210A43026002688A4302608E
:1018300000F02AF801F0EEFB10BD0000001002409D
:1018400000200240C106C90E0120884001490860FD
:101850007047000080E200E0C106C90E0120884008
:10186000014908607047000000E100E0C106C90EB0
:1018700001208840014908607047000000E200E054
:1018800010B502F07BFE10BD02480168021511433D
:101890000160704700700040024801684215114322
:1018A00001607047007000400248016810229143B7
:1018B0000160704700700040F8B566490746012591
:1018C0000020ED03624B634A4031102F6FD011DCD2
:1018D000012F77D0022F6CD0042F6BD0082F24D18A
:1018E000C9680324240321407BD0BD026C10A942A7
:1018F0007CD0A0E00326584C3604202F0BD0402F7C
:1019000035D0FF3F012F10D1C968314069D07C0428
:10191000A1426BD096E00B690969012731403F0471
:10192000B94203D1990559E02846F8BD01256D0457
:10193000A94203D19907F8D54848F8BDB142FCD176
:1019400011688903F9D511680320000501400120C1
:101950000005091A09D0091A05D0814201D1404871
:10196000F8BD2046F8BD3F48F8BD3F48F8BDC968FE
:101970000125AD06294006D0A942F7D19168890713
:10198000F4D53A48F8BD11688901FBD5D068D16813
:101990008002374D000F2D5C0802810FD068491C72
:1019A000C0030AD41068C00605D5204606E045E00D
:1019B00008E023E030E0184600E02E486843FEF7D8
:1019C00097FBF8BDCC68A407A40F0CD0022C0DD057
:1019D000012C10D0032CF4D1096989050029A3DB5F
:1019E000F8BD16E002E000F0D1F9F9E71168490707
:1019F000F6D51846F4E700F0D9F9F1E7CC680C26E3
:101A0000344006D0082CF1D0042CF4D00C2CE3D0B8
:101A1000E6E700F0ABF9E3E7CC680326B602344012
:101A2000F7D00127FF02BC42E0D07A109442E2D006
:101A3000B442D1D0D4E7A142DDD0D1E7916B4902C5
:101A4000E7D4CDE7012212049142D4D0C8E70000C8
:101A50000024F4000010024000093D0088900000BE
:101A600020A1070040420F0080841E00006CDC02B1
:101A7000B49E000800127A00F8B5044600785E4D66
:101A8000800672D55C4E0027403EB06BC00004D487
:101A9000B06BA9050843B063012758480168C90520
:101AA00011D40168821511430160FFF78FFE009089
:101AB00005E0FFF78BFE0099401A642837D84F489D
:101AC0000068C005F5D532680321090560680A4041
:101AD0000140914208D08103890F032904D1316864
:101AE000890301D50120F8BD2A69032109040A40B0
:101AF00022D0084090421FD0207880061CD528694B
:101B00002A6988430121C9040A432A612A698A4350
:101B10002A612861C0050FD5FFF758FE009008E044
:101B2000FFF754FE0099411A3548814201D903203C
:101B3000F8BD28698005F3D561688803800F032804
:101B400005D132680005824301400A4332602869AA
:101B5000032261681204114008432861002F04D059
:101B6000B06B012109078843B0632078C00705D016
:101B7000E868A168800880000843E8602078800752
:101B800005D5E8680C218843E1680843E8602078BF
:101B9000400706D5E8680321890288432169084384
:101BA000E8602078000706D5E86803210903884328
:101BB00061690843E8602088C00506D5E86803210C
:101BC00009048843A1690843E8602078400606D5E7
:101BD000E868012189068843216A0843E860207883
:101BE000000606D5E868032189048843E1690843B3
:101BF000E8600020F8BD0000401002400070004086
:101C000088130000F8B5054653480E460068C00723
:101C1000C00FB0420AD25048016849084900314318
:101C200001600068C007C00FB0426FD128784B4CEC
:101C3000800705D5E068F0218843A9680843E06083
:101C40002878C00752D06868022817D0032818D017
:101C50002168012818D08905002957DAE168890828
:101C600089000143E160FFF7B1FD69680746022979
:101C700012D003291CD0012926D033E02168890322
:101C8000EAE721688901E7E74907E5E7FFF79EFDF5
:101C9000C11B3348814223D8E0680007800F022827
:101CA000F4D123E0FFF792FDC11B2D48814217D8E4
:101CB000E0680007800F0328F4D117E0FFF786FDE6
:101CC000C11B274881420BD8E0680007800F01281C
:101CD000F4D10BE0FFF77AFDC11B2148814201D905
:101CE0000320F8BDE0680007800FF3D11A480168AF
:101CF000C907C90FB1420BD90168490849003143EE
:101D000001600068C007C00FB04201D00120F8BDDB
:101D10002878400706D5E068072109028843E9686A
:101D20000843E0602878000707D5E0680721C9026A
:101D300088432969C9000843E06000F037F8E1688A
:101D4000084A0906090F515CC8400749086003208A
:101D5000FFF75AFD0020F8BD0020024000100240AD
:101D600088130000A49E00084C0000200448054988
:101D70000068C968044A4905490F515CC84070476A
:101D80004C00002000100240BD9E00080448054998
:101D90000068C968044A8904490F515CC84070470B
:101DA0004C00002000100240BD9E000810B5184AEB
:101DB000D1680C20084004280BD0082810D00C282B
:101DC00010D050680004410F0120C003491C884016
:101DD00010BD1068C00601D50E4810BD0E4810BDDC
:101DE0000E4810BD88020E4B000F185C0902D36824
:101DF000890F491CDB0301D5084A05E01268D206A9
:101E000001D5044A00E0044A5043FEF771F910BDC1
:101E10000010024000093D000024F40000127A0086
:101E2000B49E0008F8B504460078FF4DC0074CD0BA
:101E3000E8680007800F022807D0E8680007800FD5
:101E4000032809D1E868C00306D5286880033CD57B
:101E50006068002875D038E0012062680004824282
:101E600003D129680143296011E0052301211B04E6
:101E700089049A422A6802D10A432A60F1E7824320
:101E80002A602A68024000922868884328606068B7
:101E900000280DD0FFF79AFC0646E44F04E0FFF758
:101EA00095FC801BB8427DD828688003F7D50CE0EC
:101EB000FFF78CFC0646DD4F04E0FFF787FC801B34
:101EC000B842F0D828688003F7D42078800741D53D
:101ED000E8681F270007800F3F02012807D0E86845
:101EE0000007800F032809D1E868C00306D42868DA
:101EF000400717D5E068012823D113E0E0680028E7
:101F000017D029680922914301432960FFF75EFC3D
:101F1000064604E0FFF75AFC801B0228C3D8286855
:101F20004007F7D568682169B8430902084368602B
:101F300010E02868400840002860FFF747FC06468C
:101F400005E090E0FFF742FC801B0228ABD8286830
:101F50004007F7D42078C00676D5E868B44E00076D
:101F6000800F0BD0E06900285DD02868FF21013187
:101F700008432860FFF72AFC074644E028688005EC
:101F800002D5E06900286ED0606A696831408842F5
:101F900012D903F04DFB0028AED16868616AB043E6
:101FA000084300E0E4E068606868218C0002000AF1
:101FB0000906084368600FE06968B143014369603E
:101FC0006868218C0002000A090608436860606A9C
:101FD00003F02EFB00288FD1606A410B0120C00363
:101FE000491C8840E968934A0906090F515CC840BA
:101FF000914908600320FFF707FC25E0FFF7E6FBA7
:10200000C01B02288AD828688005F7D56868616AED
:10201000B043084368606868218C0002000A090622
:102020000843686010E02968FF200130814329607F
:10203000FFF7CCFB064604E0FFF7C8FB801B022835
:1020400084D828688005F7D420787C4E000723D5F3
:1020500060690028306910D0012108433061FFF722
:10206000B5FB074605E009E1FFF7B0FBC01B0228FE
:102070007ED830698007F7D50EE040084000306117
:10208000FFF7A4FB074604E0FFF7A0FBC01B0228F4
:102090006ED830698007F7D42078400761D5A86BE7
:1020A0000027C00005D4A86B012109070843A863D5
:1020B000012763480168C90511D4016882151143DD
:1020C0000160FFF783FB009005E0FFF77FFB0099BD
:1020D000401A64284CD85A480068C005F5D5FF203E
:1020E000A2680130824203D131690143316111E0BC
:1020F00001218902002A07D005231B029A4203D13D
:1021000032690A433261EFE73269824332613069F2
:1021100088433061A06800280ED0FFF757FB00907D
:1021200006E0FFF753FB0099411A404881421FD84F
:1021300030698005F5D50DE0FFF748FB009006E01B
:10214000FFF744FB0099411A3848814210D83069A2
:102150008005F5D4002F04D0A96B0120000781432E
:10216000A9632078800630D53649A0694A1400E07A
:102170007DE0002816D0AB6801200343AB606B6B99
:1021800003436B63086A10430862FFF71FFB0646B0
:1021900004E0FFF71BFB801B022868D8A8688007B3
:1021A000F7D512E0A86840084000A860086A90438C
:1021B0000862FFF70BFB064604E0FFF707FB801BF6
:1021C000022854D8A8688007F7D4A06A002853D002
:1021D000E9680907890F032950D00126360602282D
:1021E000286805D0B0432860FFF7F0FA044640E0C5
:1021F000B0432860FFF7EAFA074604E0FFF7E6FA83
:10220000C01B022833D828688001F7D4216BE06A0C
:10221000EA680843616BFD231B049A43114308439A
:10222000E860286830430FE0001002408813000087
:1022300000E00000A49E00084C0000204010024076
:1022400000700040000001402860FFF7BFFA04461C
:1022500004E0FFF7BBFA001B022808D828688001B9
:10226000F7D509E0FFF7B2FA001B022801D90320D5
:10227000F8BD28688001F5D40020F8BD0120F8BD24
:1022800030B5014620310A78012A15D001220A70A2
:1022900002234B700468CA23636204685323636299
:1022A00003689C6820252C439C600068FF234362E0
:1022B0004A700020087030BD022030BD10B505F016
:1022C000A9FF10BDF8B50546044620352878012839
:1022D0001DD001202870022068702268CA20506238
:1022E000226853205062FF2001300026FF278142E0
:1022F0001CD121688A6882438A6020688168012233
:10230000120391438160FFF761FA009009E0022017
:10231000F8BDFFF75BFA0099411A7D20C0008142A9
:102320001BD82068C068C007F3D020E0206881680F
:102330000122520291438160206881681201914319
:102340008160FFF743FA00900DE0FFF73FFA009934
:10235000411A7D20C000814205D9206847620320D0
:1023600068702E70F8BD2068C0688007EDD52068C1
:102370004762012068702E700020F8BD10B500681B
:102380000B464068C021C94301400002000ECC0446
:10239000D870E40E5C708C06A40E0904490F9C7082
:1023A0001970002A0AD103F07BF9D870587803F02D
:1023B00077F95870987803F073F99870002010BD81
:1023C00030B50B460168896A59600168096949049A
:1023D000490C9960006804680F4821460140880252
:1023E0004D04800E18706D0E49065D70490E99708F
:1023F0006102490E40242140D970002A0AD103F01D
:102400004FF91870587803F04BF95870987803F02A
:1024100047F99870002030BD7F7F7F0070B50400C1
:1024200005D0254620356878002802D006E0012036
:1024300070BD00202870204600F042F8022068702D
:102440002168CA204862216853204862204603F070
:102450003AF9FF210028206803D041620420687007
:10246000E5E78268154B1A408260226890686368CD
:10247000A669184323693343184390602268E068D3
:1024800010612068026923891B041A4302612068D5
:10249000C26880239A43C2602068C26C920892008E
:1024A000C264E269606902432068C36C1A43C26473
:1024B0002068416201206870002070BDBFFF8FFF5F
:1024C00000B597B00420009000200A90FF20013052
:1024D00002906846FFF7A6FC002801D0FEF748FEF0
:1024E00020200E90C0020F900EA8FFF7C5FA00281A
:1024F00001D0FEF73DFE0848016901229204114314
:102500000161002211460220FFF7BAF90220FFF70D
:10251000A3F917B000BD000040100240FEB506460A
:102520000446203630780B46012842D00120307016
:102530000220707020681D46002720358068002A20
:1025400039D0400655D5187803F0AAF8287803F05A
:10255000A7F819789878090408435978DA780902B5
:10256000120411430843297809060843D96908432E
:1025700059690843054699695868084300902168DD
:10258000CA204862216853204862FF205A6A0130FD
:10259000802182424AD122689368834393602268F3
:1025A000D0680840FF388238D060FFF70FF90190FB
:1025B00029E00220FEBD400600D4DF70187803F049
:1025C00077F80204587803F073F800020243987811
:1025D00003F06EF80243D87800040243287803F031
:1025E00067F800060243D86902435869024315465A
:1025F000C1E7DF70AAE7FFF7E9F80199411A7D20EA
:10260000C00081422AD82068C068C007F3D0206883
:10261000C56121680098486420688168FF22013202
:102620001143816020688168120130E0206882686F
:1026300001235B029A4382602068C2680A401D49F8
:102640005118C160FFF7C2F801900EE0FFF7BEF825
:102650000199411A7D20C000814206D92168FF20DE
:102660004862032070703770FEBD2068C068800724
:10267000ECD520680562216800988864206881682C
:1026800001225202114381602068816812011143C6
:10269000816009480268012149040A430260826896
:1026A0000A4382602168FF20486201207070377001
:1026B0000020FEBD7FFDFFFF00040140F8B5054688
:1026C0000446203528780B46012815D001202870B3
:1026D000022068705878002A10D002F0E1FF987844
:1026E00002F0DEFFD8789E78000406435878197807
:1026F00000024903084316E00220F8BDC10603D5D5
:10270000EF2108400A305870D87802F0D1FF060453
:10271000587802F0CDFF00020643987802F0C8FF17
:1027200006431878400306432168CA20486221689E
:1027300053204862204602F0C6FF0027002811D12E
:1027400010480640206846602068C1688022914396
:10275000C1602068806880060CD4204600F08CF8A8
:10276000002807D02168FF204862042068702F707D
:102770000120F8BD2168FF204862012068702F7099
:102780000020F8BD3FFFFF00F8B50646044620369E
:1027900030780D4601280ED0012030700220707074
:1027A000206800278068002A07D040061AD52878BC
:1027B00002F076FF17E00220F8BD400600D4EF706B
:1027C000287802F075FF0204687802F071FF0002B9
:1027D0000243A87802F06CFF0243E8780004024349
:1027E00000920BE0EF702978A87809040843697813
:1027F000EA78090212041143084300902168CA20B4
:102800004862216853204862204602F05CFF00289D
:102810001FD1184900980840216808602068816825
:1028200001229204914381602969E8680843216884
:102830008A68104388602068C16880229143C16023
:102840002068806880060CD4204600F015F8002827
:1028500007D02168FF204862042070703770012083
:10286000F8BD2168FF204862012070703770002099
:10287000F8BD00007F7F7F0070B504460068C16826
:10288000A0229143C160FEF7A1FF7D260546F60018
:1028900006E0FEF79BFF401BB04201D9032070BD4C
:1028A0002068C0688006F4D5002070BD70B50400B3
:1028B00006D025464035687C0026002802D005E079
:1028C000012070BD2E74204600F032F8022068749A
:1028D00020680168402291430160A1686068226914
:1028E0000843E16811430843616901220843A16973
:1028F000520211400843E1690843216A0843A16A72
:10290000084321680860A0690421000C0840616A3E
:102910000843216848602168E06A08612068C1694D
:1029200092009143C161666501206874002070BD0A
:102930007047F8B5044600276846078026464036AB
:10294000707C012802D0707C22287ED100290CD016
:10295000002A0AD0002B08D0307C012875D0012035
:102960003074707C012802D003E00120F8BD3220D1
:1029700070746765A263A387E3872163A386E386F8
:10298000A764E7640125A06A6D03A84207D1206807
:102990000168A9430160206801682943016020683B
:1029A0000168490603D401684022114301600121F6
:1029B000FF20E268C90205308A42616866D10029B9
:1029C00004D081420CD1E08E012809D1206B21680E
:1029D0000088C860206B801C2063E08E401EE0866B
:1029E000E08E002843D1A06AA84246D12068016841
:1029F00001221203114301603FE02068C068A16B0F
:102A00000880A06B801CA063B0E000220221204659
:102A1000069B03F0D3FD00287DD1206B2168008840
:102A2000C860206B801C2063E08E401EE086E08E34
:102A3000002808D1A06AA84205D1206801680122B7
:102A4000120311430160002200E0CCE00121204686
:102A5000069B03F0B3FD00287FD12068C068A16BFE
:102A60000880A06B801CA063E08F401EE087E08E92
:102A70000028CAD1606800287BD1002201212046AD
:102A8000069B03F09BFD002867D1B6E7002904D020
:102A900081420BD1E08E012808D1206B411C2163BB
:102AA00021680078C860E08E401EE086E08E002835
:102AB00045D1A06AA84205D120680168012212030D
:102AC00011430160002201212046069B03F076FDA0
:102AD000002842D12068C068A16B087046E000223F
:102AE00002212046069B03F069FD002835D1206BAA
:102AF000411C216321680078C860E08E401EE0869A
:102B0000E08E00280AD1A06AA84207D12068026896
:102B10000121090300E020E00A43026000220121B4
:102B20002046069B03F04AFD002816D12068C268A3
:102B3000A06B411CA1630270E08F401EE087E08E15
:102B40000028CCD16068002813D100220121204642
:102B5000069B03F033FD002802D00320F8BD08E0F7
:102B60002068C168A06B421CA2630170E08F401E08
:102B7000E087A06AA8420FD1002201212046069BCF
:102B800003F01CFD002802D0606D02210EE02068D9
:102B9000C068694608800888012280212046069B7B
:102BA00003F00CFD002804D0606D2021084360650F
:102BB000D3E701207074A06AA84211D1206881680F
:102BC000C943C9060CD4616D0222114361650168D5
:102BD000A943016020680168294301603774C4E695
:102BE00037740020BAE70220B8E770B5040005D0BA
:102BF00025466035687A002802D006E0012070BDC5
:102C000000202872204600F027F8242068722068EF
:102C10000168490849000160606A002802D0204626
:102C200005F0C4FB204605F057FC0128E7D02068DA
:102C300041680922D20291434160206881682A22BA
:102C400091438160206801680122114301602046A0
:102C500005F012FC70BD000010B50448816B012224
:102C600052041143816306F095FF10BD001002402D
:102C7000FFB5064604466036707A83B00D462028BC
:102C800058D1002D0CD00598002809D00120A1684A
:102C90000003814207D12069002804D1E80702D04F
:102CA000012007B0F0BD307A012843D001203072F6
:102CB0000020E06621207072FEF788FD0190274613
:102CC0004037059838820598788218E0788A401E47
:102CD000788206980090002280212046019B05F012
:102CE00013FD002818D10120A1680003814202D100
:102CF0002069002812D02168287888626D1C788AA3
:102D00000028E3D106980090002240212046019B34
:102D100005F0FAFC002808D00320C2E728882168C3
:102D2000C005C00D8862AD1CE9E72020707200204C
:102D30003072B6E70220B4E710B5124801780029D6
:102D40001ED10122027011480F4901600021016467
:102D5000C161D3078161436082638160C1600162A8
:102D600007234162C3630261C162042242610163BD
:102D70000748416B4215114341630448FEF7C6FA08
:102D800010BD00008800002000240140E405002060
:102D9000001002407CB51E49064609780020002933
:102DA00034D01C484168C9430907FBD41A4C606BF6
:102DB00065152843606300211848FEF703FA184898
:102DC00000901848019069461448FEF751FAA01483
:102DD0000190694600961148FEF74AFA0F48FEF73F
:102DE000D7FB0021C9430D48FEF773FB0B48FEF7E4
:102DF00089FA0A4980B20A689368022633439360CD
:102E0000096803220A60616BA94361637CBD00000D
:102E1000880000200070004000100240E4050020FF
:102E2000FFFF070001100000014600200A0A00D041
:102E30000820084A114201D004221043064A1142D8
:102E400001D002221043054A114201D0012108435A
:102E500070470000F0F00000CCCC0000AAAA0000EF
:102E600038B50B231B07C518114B0FD01C152D1B94
:102E700018D02D1B19D0A542DD6A05D108242543A1
:102E8000DD62DB6A234007E08024F8E7DC6A012585
:102E90002C43DC62DB6A2B40009311601146FEF785
:102EA000CDFB38BDDD6A0224E9E7DD6A0424E6E7EC
:102EB0000010024010B5FFF7B7FF810002484058EC
:102EC000002800D0804710BD0C03002070B51C46C0
:102ED00015460E460846FFF7A7FF0A49002C0DD0FD
:102EE00080000C50304601F0D7FA044600222946F3
:102EF000FEF7C6FC2046FEF7AFFC70BD0022800046
:102F00000A5070BD0C03002010B5D2B2FEF758FC79
:102F100010BD000070B500240E48FFF73BFF0E4EB9
:102F20000E4D010013D00E483246008B5043FDF782
:102F3000DFF8B04201D9FE2409E0A84207D3401BC4
:102F4000FE2148434B210901FDF7D2F8C4B22046C7
:102F500070BD000000000244B80B0000080700002C
:102F60006000F81F03494A690869496A50404840AF
:102F7000704700004000F81F70B51148FFF70AFFC6
:102F8000104C01001AD0208B0F4A5043FDF7B0F8C7
:102F900005460E48FFF7FEFE68430B49FDF7A8F80B
:102FA000618B0522401A12035043E28B511AFDF740
:102FB000B5F80F214902401880B270BD0025E8E73E
:102FC000000002446000F81FB80B00000000044835
:102FD0000F494B6A0A69D218120EC2714B6A0A690C
:102FE000D218120C82710A8A8B8CD218120A427182
:102FF0000A7C8B8CD21802714A69120EC2704A691F
:10300000120C82708A8A120A4270097D0170704720
:103010004000F81FF0B587B014216846FDF7DBF8D3
:10302000224CE06A01210843E062E06A0840059012
:10303000E06A02252843E062E06A28400590E06AE1
:1030400004263043E062E06A30400590E06A802761
:103050003843E062E06A69463840059003200190F9
:10306000002002901248009005200007FEF7E6FAC3
:103070001048009069461048FEF7E0FA69460F488C
:10308000FEF7DCFA69460E48FEF7D8FAE06A400817
:103090004000E062E06AA843E062E06AB043E062B8
:1030A000E06AB843E06207B0F0BD000000100240E3
:1030B000FF9F0000FFFF00000004005000080050C8
:1030C000001C005010B5104C607800281AD1FFF792
:1030D00033FE0E480068804700F0FEF900F09CF8CF
:1030E00006F036FDFDF762FF0020FDF70DFF012021
:1030F000FDF70AFF0220FDF707FF0320FDF704FF9D
:103100000120607010BD000088000020249E00088F
:1031100070B5410EC0017D220023FDF713F805466E
:1031200000F072F8044600E000BF00F06DF8001BEC
:10313000A842F9D370BD000070B505460C460022C8
:103140002048FFF73DF9002229461E486668FFF730
:1031500015F9002221461B48FFF732F96068B0429A
:10316000F1D1E878184A01465043C01C830888070B
:1031700026D0164968783D220646504302463C3A1E
:103180007000801EC1408807D10F8918800F491038
:10319000081AC018A978401E08180D493C22484357
:1031A0006178E123514322781B015A438918A278A0
:1031B00010180818074A61688002511A401870BD3B
:1031C0000549D7E74C030020B5050000A0AA9900E7
:1031D00080510100FF030000505544000320704758
:1031E00001480068704700009803002000B587B0D0
:1031F000694605A8FFF7A0FF0249096807B0401A11
:1032000000BD00009803002000B587B0694605A8FE
:10321000FFF792FF07B000BD10B5084C20780028DA
:103220000AD100F04DF8FF2101310548FFF74AF8B7
:1032300000F076F80120207010BD0000540000203E
:103240004C03002010B50D4C0021042000F098FB29
:1032500001200B494004486121688868C0040BD5EF
:10326000C868C00508D5C86880221040FF38823879
:10327000C8602046FFF722F810BD00004C03002074
:103280000004014070B50446FFF7B0FF211A0B4D52
:103290000220285EC01C814201D9002100E00121EA
:1032A000042000F06DFB00F043FB012802D1022056
:1032B000285E241A204600F03FF870BD540000201C
:1032C00010B51449144886B0002412C01F210160B3
:1032D000846004611149446141600838FFF79EF839
:1032E0006946CC750120487588750875002205A9C6
:1032F0000948FFF7E3F90094019404940022694619
:1033000005480394FFF740FA0348FEF7B9FF06B0FB
:1033100010BD0000002800404C030020FF03000007
:1033200010B5044C2046211D1830FFF705FF206022
:1033300010BD000098030020F0B587B004461422A9
:10334000454901A8FCF72EFF43485038406E0090D5
:1033500000F08CF8012041494003886140480299FF
:10336000404A401AA105890D081887B2A10A68468B
:103370008078534202E08918401C80B29942FAD208
:103380006A461579E122120102E0891A6D1CADB27C
:103390009142FAD26A46547902E0641CA4B23C39E4
:1033A0003C29FAD2927951188EB20121890203E0A8
:1033B0007A1A761C97B2B6B28F42F9D203E03C3E3D
:1033C000641CB6B2A4B23C2EF9D203E03C3C6D1CA6
:1033D000A4B2ADB23C2CF9D203E0183D401CADB212
:1033E00080B2182DF9D26946C978890769464A78AA
:1033F0002FD01D49491E515C814202D2FCF778FE54
:1034000008461749CA1B14492C394A60052252063E
:103410008A618E704C700A460D70203210706846BA
:10342000C079C8700020C861FF2248610132C860BD
:103430004A620861024608462438FFF76FF801A97E
:103440006846FFF779FE012004494003886207B00F
:10345000F0BD05490C31CDE79C030020000400506D
:10346000FF03000080AEFEFFC59E000810B5FF21DF
:1034700001310748FEF726FF05480168C868802229
:103480001040FF388238C86002499002486110BD80
:103490004C0300200004014010B57D2105F0B7F970
:1034A0004906C009084310BD10B5410EC0017D2278
:1034B0000023FCF747FE10BD01B582B00020C043D9
:1034C0000090012301AA02A90248FFF732FA6846D8
:1034D00080880EBDB403002010B51C481A49016055
:1034E0001C4A1B4B0021126803E05208491C0729A3
:1034F00001D29A42F9D84A078B07D20FDB0F52014B
:103500001B011A43C90700D008210A43C2610021E8
:10351000816001614161FF22C160053281624260C8
:10352000012201625202826141620B48416B8214A6
:10353000114341630548FFF7B9F9002801D0FDF7B1
:1035400017FE00F00BF810BD00300140B40300205E
:10355000809698004C0000200010024030B585B0E5
:1035600014216846FCF737FE0220019002900320E8
:103570000390002004906A4608210F48FFF770FC72
:10358000052424076A4640212046FFF769FC6A4665
:1035900080212046FFF764FC01210191CD030291B7
:1035A0006A4629462046FFF75BFC01222946204651
:1035B000FFF7AAFC05B030BD0004005000BFFDE7D6
:1035C00010B507A1095C07A006F03CFB0C480021E0
:1035D000017102214171002100F06AF910BD000063
:1035E0004142430073776974636820746F20636C91
:1035F00061737320256320646F6E650A0D000000FF
:103600005C00002010B503A006F01CFB002000F0B9
:10361000C9F810BD4A4F494E45440A0D000000004C
:1036200070B5324D2960A86031A006F00BFB2E4624
:103630000C36317830A006F005FB0124315D32A054
:1036400006F000FB641C082CF8DB2AA006F0FAFA4E
:10365000264E2FA01436317806F0F4FA0124315D9D
:1036600029A006F0EFFA641C082CF8DB21A006F074
:10367000E9FA1E4E2AA01C36317806F0E3FA01243E
:10368000315D2BA006F0DEFA641C102CF8DB2AA0BA
:1036900006F0D8FA2A48294901602A4941602A4996
:1036A00081602A49C160A86810490068091D086046
:1036B0000822234800F0D0F9214C02201034207059
:1036C000286800782071204600F07EFC07202070DA
:1036D000286880782071204600F076FC0020207059
:1036E0002071204600F070FC70BD00008C000020AE
:1036F0004F5441410A0D00004465764575693D20EF
:1037000025303258000000002D25303258000000CE
:103710004170704575693D20253032580000000029
:103720004170704B65793D20253032580000000013
:1037300020253032580000000A0A0D00C944000854
:1037400054060020CD4400082545000865450008C2
:1037500010B586B00021684601700A480190083013
:103760000290083003901C38006841786846017464
:1037700001A91EC904481EC0684600F04BFD06B0F2
:1037800010BD000098000020440600200EB5012165
:103790006846017000F09AFB68460079012800D065
:1037A00000200EBDFEB5064600246846274604707C
:1037B00000F08CFB68460079B04223D03100124EF5
:1037C000124D02D002291DD10DE000281AD1684601
:1037D000077100F0F9FB002803D1B068816900206F
:1037E0000FE02C460EE0002800D02C46022069464F
:1037F0000871684600F0E8FB0028F2D1B0688169E2
:10380000022088472046FEBD8C000020FFFFFFFFFE
:1038100010B542791949022A20D0032A10D0632A10
:103820000DD100688078642826D000200870002818
:103830001BD013A006F006FA0220FDF7A7FB10BD6F
:1038400001790129FBD100680078002803D0012804
:1038500001D00228F3D1FFF7A5FF10BD0279012A9C
:10386000FBD1006800781040E0E708A006F0EAF914
:103870000220FDF77BFB10BD0120D7E75800002098
:103880004C4544204F4E0A0D000000004C4544209A
:103890004F46460A0D00000010B504480021017192
:1038A00002214171002100F003F810BD5C000020EE
:1038B00030B585B00D46044605F058FD002802D00D
:1038C000002005B030BD207904A900F089FD014633
:1038D0000020164A002904D06946087002908881A9
:1038E00020E0002D16D00121684601706179017138
:1038F000217981812068029008216846C17310688F
:10390000417868468173684600F04AFA0028D8D0AA
:103910000120D6E7694608706079087120798881AE
:1039200020680290106840788873ECE78C000020D3
:10393000EFF3108172B607480268002A01D0002018
:1039400005E04068002801D0012000E0022081F35A
:10395000108870475801002010B5EFF3108272B63E
:10396000064B00295C6803D0012903D1044300E021
:1039700084435C6082F3108810BD00005801002071
:1039800010B5EFF3108272B6064B00291C6803D005
:10399000012903D1044300E084431C6082F31088B2
:1039A00010BD00005801002070B50446884200DDBB
:1039B00001460D46042A0CD004220021184601F0CD
:1039C000D1FF322803D2052C00DC052425462846E9
:1039D00070BD022CFADC0224F8E70000F8B51746A7
:1039E00005460A461948069C089E0799447183714A
:1039F0001C0AC4711C0C04721B0E437281720B0AE8
:103A0000C3720B0C0373090E4173D4B2C473104814
:103A1000FDF7A6F939460E48FDF7B2F910220B4919
:103A20000B48FDF7B5F9224629460948FDF7B0F9DC
:103A30000749C81FFD38FDF7F5F8064C601CFCF778
:103A4000D5FB2178000208433060F8BD2401002036
:103A5000540C0020500B0020F8B50F460500164608
:103A60007ED028680028FBD068680028F8D0A868B5
:103A70000028F5D0E8680028F2D0104602F0A2F83D
:103A800000286ED0754C0021E765A5652246E673D7
:103A90001932117021746163A174216561650B2174
:103AA0006A4611703046694602F07BF8002800D063
:103AB0000120E0740821684601706946E07B02F04D
:103AC00070F8674D05212870684601706946E07BF3
:103AD00002F067F868700C21684601706946E07B67
:103AE00002F05FF8E8600D21684601706946E07BEE
:103AF00002F057F828610E21684601706946E07BA4
:103B000002F04FF868610F21684601706946E07B5A
:103B100002F047F8A8611021684601706946E07B11
:103B200002F03FF8E8611321684601706946E07BC6
:103B300002F037F82E462036707014216846017066
:103B40006946E07B02F02DF8686215216846017035
:103B50006946E07B02F025F830721A21684601E0E0
:103B600077E078E001706946E07B02F01AF8307384
:103B70001B21684601706946E07B02F012F8707301
:103B80001C21684601706946E07B02F00AF8286350
:103B90001D21684601706946E07B02F002F8686307
:103BA0000021E07B02F007F8012737700A22062186
:103BB0006A6028462972383842600172E968C1603B
:103BC0002969016169694161A9698161E969C16125
:103BD0002030077002F058FC28462249383004F0A3
:103BE00003FB7D212846C900383004F065FB2846D8
:103BF0001D49683004F0F8FA28461C497C3004F06E
:103C0000F3FA28461A49903004F0EEFA284619498A
:103C1000CC3004F0E9FA04F0D5FA206328461649BE
:103C20004C300160154981601549016115494160B9
:103C30001549164DC160A9688847E869804705F0B5
:103C400081FF6774296E38468847686B804700207B
:103C5000F8BD0320F8BD0A20F8BD0000BC0000201C
:103C6000280A00200146000815500008494F0008A6
:103C7000A94F0008C1450008214E00084948000826
:103C8000214D00080D4F0008A14D0008249E00089A
:103C9000F8B504461D4617460E460D48FDF760F878
:103CA00039460B48FDF76CF8F2B221460848FDF79B
:103CB0006FF80749C81FFD38FCF7B4FF054C601CBE
:103CC000FCF794FA2178000208432860F8BD000050
:103CD000540C0020500B0020FFB585B00F46044661
:103CE00007ADF02200211D480E9E05F071FD1B4A14
:103CF0001021204605F046FA10220021684605F002
:103D000067FD012168460170062239466C46401C59
:103D100005F046FD02222946E01D05F041FD0F4A4F
:103D20006846089905F003FA10220021684605F05C
:103D30004FFD02216846017006223946601C05F0DD
:103D40002FFD02222946E01D05F02AFD034A3146D7
:103D5000684605F0ECF909B0F0BD0000600B0020EA
:103D6000F8B517460E4605461C46F02200210B48C2
:103D700005F02EFD094A1021384605F003FA074ADE
:103D80002146284605F0D3F9102E06D321462846B1
:103D9000024A1031103005F0CAF9F8BD600B00205E
:103DA000F0B504460026022087B035463746049019
:103DB000002C5BD04248406B002802D0012007B0A5
:103DC000F0BD002069460872014614223D4805F006
:103DD000FFFC3C4801214170394841732278002A98
:103DE00004D0012A0AD0032A29D11AE001736B46B4
:103DF0001A7A0127D206D20E403207E0E27B027324
:103E00006B461A7A0127D206D20E80321A722679B0
:103E1000A2680192A2890E2500926557E02E25D84E
:103E20000DE001736B461A7AE0231A436B461A724F
:103E300062680192012722890A25009265570121B3
:103E40006A46117520490691097B91751C4805A9A0
:103E5000C07B01F0A6FEA84200D3054668B2002F41
:103E600022D0174D2979002902D012E00320A6E7BD
:103E70006946087306980422007B887303A9E87BCF
:103E800002F0F6FA0028F1D00F496846007B20398D
:103E90004870314602A8009B019A04F063F8049030
:103EA000002803D000206871049888E7054821782D
:103EB0000170034801221930017811430170F3E7C2
:103EC000BC000020200B0020100A0020F8B50025BF
:103ED0000446002819D03A49277838480A4638322B
:103EE000C67B3B0004F0ABFC1F1315181A1C1F21E6
:103EF0002426282A313C3A4347494B4D4F515357CA
:103F000055595B5D5F61636567000320F8BD007C08
:103F100000E0C07820714FE00079FBE7806C00E0A2
:103F2000C06C606048E02748FBE726481030F8E79F
:103F3000407CEFE7807CEDE7192012E02049203932
:103F4000486C896CA160606036E01D4920390846E4
:103F50007C30C96F40686160A0602DE0172000E0F0
:103F6000162069460870304601F01BFED9E7144858
:103F700020300078CEE7C868D3E70869D1E7486900
:103F8000CFE78869CDE7C869CBE75078C2E74878C2
:103F9000C0E71078BEE70878BCE7406AC1E7806AEE
:103FA000BFE7006ABDE74868BBE7087AB2E7486B3D
:103FB000B7E7506BB5E702252846F8BDBC000020E6
:103FC000F0090020D0060020F0B5002689B0044694
:103FD000002806D08B4FB88EC00704D0012009B04E
:103FE000F0BD0320FBE7884D864822782946C07B38
:103FF00020310191497B130004F021FC1F11212481
:10400000272A2D333C42F1456C827E8D94979A9DF0
:10401000A1A4B3D3C4E2E5F1E8F2F8FBF100207902
:104020003874002804D0012805D0022803D103E009
:104030007648406B8047E2E00020787139E02079D3
:10404000F870DCE020793871D9E06068B864D6E0B7
:104050006068F864D3E0616800296FD010226C4872
:1040600005E06168002969D069481022103005F028
:1040700097FBC4E0207965497874096E8847BEE0F3
:104080002079B874BBE0237A6A461375517506220D
:1040900005A902F0EDF9002850D05B48A26820384D
:1040A000616882644164387C022812D1F878002863
:1040B0000FD05648406B804753480821F03000909D
:1040C00001982A7A41566B68F87B01F054FD00F0A4
:1040D000BDFF94E0237A6A4613755175062205A93F
:1040E00002F0C6F9002869D04748A3682038626802
:1040F0008021C2670B5082E061680391012102E0D8
:104100006168039100216A46117403A901F02EFB36
:10411000002853D073E02079411E0E294ED8019912
:1041200008706CE06068E86069E06068286166E0DB
:104130006068686163E06068A86160E03EE06068B4
:10414000E8615CE021796A461175052205A902F053
:104150008FF9002832D06846017D2B4838304170F5
:104160004DE0227969460A7501990A7B69468A758C
:10417000042205A902F07CF900281FD06846007DC2
:1041800068703CE021796A461175082205A902F0A1
:104190006FF9002812D06846017D1B483830017045
:1041A0002DE021796A461175072205A902F060F910
:1041B000002803D06846007D287020E003261EE01A
:1041C000606878621BE06068B86218E00E48616859
:1041D00038304160696012E00BE007E000E00DE07C
:1041E0000948217938300172297208E060686863F3
:1041F00005E0054861683830416300E0022630463A
:10420000EDE60000BC000020F0090020249E00081C
:10421000D0060020FEB5044602200090002C51D0AC
:104220003848406B002818D10C220021364805F090
:10423000CFFA354E01207070324D2078082719359D
:10424000002806D001283FD0022848D0032830D1CA
:104250004DE02C48808EC00601D50120FEBD60686F
:1042600000282FD0A06800282CD0E068002829D092
:1042700002F00AF9287838432870207830702148F5
:104280006168C163A1680164E168416410216156FD
:10429000C07B01F047FA1D4948700020694608714B
:1042A00003460246014601A803F05CFE0090002888
:1042B00006D01449002048712878F721084028705A
:1042C0000098FEBD0320FEBD2878002238432870E8
:1042D0002078307011460220FCF7BAFDE6E7307016
:1042E000287838432870A08803F0B0FEDEE73070ED
:1042F000287838432870227BA088A16803F0D0FE7C
:10430000D4E70000BC000020340B0020F00900209E
:10431000FEB508AF70CF6F4670C700F001F8FEBD64
:10432000FFB50D46002681B01F460124F02231461C
:10433000294805F04DFA284A1021039804F022FF7D
:1043400026480A9941718771390AC171390C017285
:10435000390E41720B9981720B991F4F090AC17274
:104360000B99090C01730B99090E4173203F18E05A
:104370001A48194AC473641C1146A4B2203904F0C7
:10438000D6FE00203118019A3B5C525C401C5A401A
:104390000C9B80B25A541028F4D3103D1036ADB2A5
:1043A000F6B2102DE4D2002D13D00B4A0B48114663
:1043B000C473203904F0BBFE002008E0019A3118D4
:1043C000525C3B5C5A400C9B401C5A5480B2A84241
:1043D000F4D305B0F0BD0000600B002034010020D4
:1043E000F3B52B4887B00E46427869460A710078CB
:1043F000284C0876207A617A4018C5B2002E32D057
:1044000000216846017221794172E06A20490390D7
:1044100038394A78684602741D4F09784174183F4C
:10442000397B817420462C30009006AB01AA02A98A
:10443000E07B01F068F9397B684681750179417547
:1044400009210175A07C002802D00A206946087560
:1044500005A9E07B01F0A5FBC0B27070A84205D3AE
:10446000401B307006E0032009B0F0BD307000251D
:10447000257265726846042141562A46079804F061
:1044800079F9002801D00020EEE70820ECE70000D1
:10449000280A0020BC000020FF220132811A90422D
:1044A0000CD009DC08280DD008DC012808D002282F
:1044B00006D0042802D105E00F221202072070471F
:1044C0000520704706207047704700007CB5044601
:1044D000407800281CD16079104D012802D1A868CD
:1044E000C069804704F042FF002801D004F02CFF8F
:1044F000607B01280CD1E078E0280AD06946487139
:10450000207B0871A0680090A86801696846884708
:104510007CBD0349204604F02FFF7CBD8C000020A9
:104520004406002010B50446007800280CD001286D
:1045300009D16078002806D104F018FF002802D0C5
:10454000204604F009FF10BD6078002802D0FFF774
:10455000FFF810BD024880684069804710BD000028
:104560008C0000200078042803D102488068C069CC
:10457000004770478C000020704700008307FF222F
:10458000DB0E9A408907090E994000280BDA0007D4
:10459000000F0838830808489B001818C369934324
:1045A0000B43C3617047830804489B001B181868BD
:1045B000904308431860704700ED00E000E400E01D
:1045C00010B50B4803F0C2FE0A484179002905D016
:1045D00001218173416B042291434163007C0228D5
:1045E00005D104482022193001781143017010BD13
:1045F000F40A0020BC00002010B504F081FF10BDBB
:10460000F8B500278D4803F0A1FE8D4D8D4C28781C
:1046100081066DD5616B4A0604D540229143490855
:1046200049006163854A0107D4320026002901DB75
:10463000C10711D08149C0314B78022B02D0537889
:10464000022B09D1636B5B085B0063632672637B9B
:104650004B710E7101278E6061793943774F503F5E
:1046600000292BD1010702D4C10703D126E011781C
:10467000002906D03978A27A914208D981070CD452
:1046800017E0507800280FD16662A6720CE0800710
:1046900003D42672E06A401CE062A67260780028AB
:1046A00002D1606A401C6062606B40084000606339
:1046B00004E0DF210840287000F0ACFC2878800777
:1046C00017D55E4AC0321079012803D0607B217B68
:1046D00088420ED9A67366716078002802D1606A9C
:1046E000401C6062607B5071606B400840006063FA
:1046F00050E0A07B00284DD0A08EC0064AD4A673FF
:10470000607B217B884232D2082830D8401C6073FD
:10471000C0070DD01E2168460170397B474F81705C
:10472000703F797841706946E07B01F03AFA787021
:10473000012003F003FB002814D040480921C030B9
:1047400041702672616B49084900616366710671A8
:10475000617B4171394970394978817060780028EE
:1047600015D017E02878DF210840287012E00121D9
:10477000E07B01F020FA606B4008400060632F4846
:1047800026726671C0300671617B4171E6E7606A2E
:10479000401C6062606B810702D502218843606320
:1047A000002811D07D21C900244803F085FD23484D
:1047B00003F094FD2878810734D5FD210840287046
:1047C000207C022820D021E02878C10707D04008AB
:1047D00040002870A06D01681848C03088472878CC
:1047E000010707D5F72108402870A06D816813489C
:1047F000D4308847607A002801D003F01BFC287869
:10480000DF2108402870D5E700F020FC2878400719
:1048100004D4A06D41680948A83088472878FB2156
:1048200008402870C0B2C10607D5EF2108402870A3
:10483000A06DC1680248801E8847F8BD600A00204C
:10484000D5000020BC000020FFB595B00C46064600
:104850000021FB4808910F90103012910D90F948FB
:104860000B91119101711838C281189A0274F64A9D
:104870000D46127E4274C170817041718160017376
:104880004173817441610170F048406B8047ED488D
:10489000683803F05BFD3078694608704109601E96
:1048A0000290201FEA4F13911090012917D003297D
:1048B0007ED005297CD007297BD039460120F831EC
:1048C000487000F039FDE048DE4A4179037C447BC2
:1048D0001279007B00296DD0002A6CD1FEE1DA4804
:1048E000C178002904D0D749012018394870B3E0B5
:1048F000D5480299D74D426C89B26B1C701CFFF7EA
:104900002FFA684600782870109808AB81B2CE481C
:10491000426C2846FFF7BCF928192038417F027FF6
:1049200009021143827FC07F12040A4300060899DE
:104930001043884247D1C248C34E10300090C04B4C
:10494000B28B691C706CFFF7C7F96879297900028E
:104950000843A97909040143B164287AE97900027E
:104960000843697A09040143A87A00060843F06401
:10497000E87A4106490F00077970000F3872287BEA
:104980000107B548090F016101D1012101617D22B3
:10499000D2005143016189184161AE48113C0D308C
:1049A00004906846047504A9F07B00F0C4FE03E09F
:1049B0000EE081E18FE193E1A249002014314870BB
:1049C0000120F0707FE79F480721143041707AE79B
:1049D000797B684681739B489B4F183801796846FC
:1049E000417309210173B87C002802D00A2069466E
:1049F000087303A9F87B01F0D4F821460D3909B2F8
:104A0000002900DA0021814200D96CE7B078717882
:104A100000020843F17809040143307902060A4391
:104A200089490692C96C05208A42874918D00D6AC7
:104A30000CE02A6806998A4207D101211291291DAA
:104A40000F9110310D916F6A0BE0AD6A002DF0D11E
:104A50000B217C481838417000F06EFC19B0F0BD95
:104A60008F6A325C69460A70401C0A92335C401CB3
:104A7000305C01021007000F08300990301919430B
:104A80002038037F0B9A1343427F12021A43837F1D
:104A9000C07F1B041343000618430B90C81B81B250
:104AA0000122D20308A80E91914212D27F1801214F
:104AB0000197029000911098069B81B230460F9AA0
:104AC000FEF78CFF08990B9888421AD101201190AB
:104AD00017E009B27A1801210904511814910191C3
:104AE000029010980122009281B23046069B0F9AE4
:104AF000FEF774FF08990B98884202D10120149F99
:104B000011901120694608734F4803A9C07B01F03A
:104B100048F80E99884205D84A480A211838417049
:104B2000476199E7119800287AD046490020183942
:104B30004870129A8A700A9AD206D20F4A71886017
:104B400008734F611831404A4870D0625072129811
:104B500000280CD008460222183802706A6ABA424D
:104B600003D1002A01D0082175E76F6223E0139872
:104B700005280DD03448334A00238371183A137046
:104B8000806AB84215D1002813D00820507063E71E
:104B90002D482C4B01228271183B1A70806AB84252
:104BA00007D1002805D028480423193002781A4379
:104BB0000270254887620878012832D0224A0020F6
:104BC00010720998201A001F002863DD099D0998BA
:104BD0006D1C621B121F1B4C305CD2B2183C0E9233
:104BE000E07000280A9839D0000707D018980821EB
:104BF000C3B2681EC2B2304600F0BCFB15480121AA
:104C00000197009102907019069B0D9A0E99FFF77B
:104C10007FFB1048A0600E9820730120607343E072
:104C200048E00A988006CCD5074A002010720A98FE
:104C3000044A8006C00F0871183A9074C1E700005A
:104C4000D0060020200B0020BC000020249E00087D
:104C5000100A0020EF070020F0090020000708D00C
:104C60002C48042302781A43027000200871A074B3
:104C70001AE0012128480091019702907019069BC3
:104C80000F9A0E99FFF744FB18980021C3B22248EF
:104C90000E9A07E00A98000706D018980821C3B2B8
:104CA0003046099A00F066FB1A4802220178114347
:104CB000017008E60C21CCE6711C2246164804F06F
:104CC0006FFD164803210170002141701249816077
:104CD00002990173E8E7022B02D005E0844203D970
:104CE0000E48143803F032FB0C481438007A0028C0
:104CF00000D0B3E60748202201781143017007482D
:104D00000121A83803F0D8FA0448A83803F0E6FADD
:104D1000A4E60000D5000020EF070020080B0020CB
:104D200070B51C4C207C022802D01B48406B804789
:104D30001A48184D227E0146193520261431637910
:104D4000002A0BD00622002B00D042704A70207C33
:104D500002281BD028783043287070BD0522002B14
:104D600000D042704A70207C02280FD0206D03F0E2
:104D70002FFA616E884206D30848683803F0E6FAD5
:104D8000287830432870207C0228E6D100F05EF9B4
:104D900070BD0000BC000020249E0008200B0020F5
:104DA00070B51C4C207C022802D01B48406B804709
:104DB0001A48184D227E0146193520261431637990
:104DC000002A0BD00422002B00D042704A70207CB5
:104DD00002281BD028783043287070BD0322002B96
:104DE00000D042704A70207C02280FD0206D03F062
:104DF000EFF9616E884206D30848683803F0A6FAD6
:104E0000287830432870207C0228E6D100F01EF973
:104E100070BD0000BC000020249E0008200B002074
:104E2000FEB503F0CFF9364C0646207C022803D0AD
:104E30003448406B804701E000F008F9304DA0781D
:104E40001935002700282AD02F48216E03F034FAA4
:104E50002D4803F043FA207C02280ED02A48616EC8
:104E6000143003F029FA2848143003F037FA207C74
:104E7000022802D06079002820D0122069460872EA
:104E800002A9E07B00F08DFE616E41181E48503093
:104E900003F012FA1C48503003F020FA0EE01A48D2
:104EA00004217C304770143041702878002801D1EB
:104EB00001202870C0B220210843287028780007FC
:104EC00004D5114890300078002815D0A775207DB2
:104ED000607569460870E07848700196E07B00F0E4
:104EE000B4FE26656079002805D107487C304770FC
:104EF000A07A401CA072FEBD0120A075E7E700006B
:104F0000BC000020249E0008A40A002010B50B4815
:104F1000007C022803D00A48406B804701E000F083
:104F200095F808490220487014314870034820223F
:104F3000193001781143017010BD0000BC00002041
:104F4000249E0008200B002070B5144803F0FEF9E1
:104F5000134D0020114C2876297D283421702146DC
:104F6000BC394A78E270497B2174A97C6174A074D1
:104F7000E074287C022802D10A48806B8047074AE7
:104F8000E87B68321146403900F04BFE0348B438E4
:104F9000C168A07C01F006FB70BD0000A40A0020DF
:104FA000BC000020249E0008F8B5154803F0CEF997
:104FB000134C144D2834287D27462070F03F786A22
:104FC00060602046D038407B2074A87C6074012645
:104FD000E674287C022802D00020A07400E0A674A9
:104FE000074AE87B543211462C3900F01AFE00289B
:104FF00004D0A07CF96801F0D5FA2E76F8BD000047
:10500000B80A0020BC00002010B50120FBF7AEFF5D
:1050100010BD000010B5064803F098F905481022AD
:10502000416B91434163012002F088FE10BD0000F6
:10503000900A0020BC00002010B502F017FF0248C3
:1050400003F04CF910BD00004C04002010B5FFF730
:10505000ABFF02490220087610BD0000BC00002012
:10506000F0B5064600242046002E01D0002A1ED1AD
:105070000020F0BD355DAF1E3B0003F0E0FB0916DC
:1050800014160612140E16061600641C1554E4B20B
:10509000401CC0B2335D135400E01554401CC0B234
:1050A00003E0A41C00E0641CE4B2641CE4B28C4283
:1050B000E0D3F0BD70470000F0B50C4687B08446E1
:1050C000002198480C9D069141831E1E1746417190
:1050D00000D10025EAB202706146934D097829702B
:1050E0000121009161460978490908D002293FD081
:1050F00004293BD007297DD0022007B0F0BD0099DC
:1051000004464183681C0822216C04F054FB608B28
:105110000822083080B260832818E16B04F04BFB52
:10512000608B083060838148C06980470146A08356
:10513000608B06AB2954401C80B2090A2954401CDC
:105140006083C1B27848626CFEF7A2FD608B06995D
:105150002954401C80B20A0A2A54401C80B20A0C0E
:105160002A54401C80B2090E2954D7E00121417114
:10517000C178002969D0012269460A7321786948FB
:10518000CA0969464A736A4AC06A04905078087529
:105190001078487510462030007B887561481346AA
:1051A0002C3000902C3803A9C07B521C00F0ABFAC5
:1051B00081012078BF22104008435A492070897924
:1051C000002905D0574A0021917120210843207001
:1051D0005448C16C54480A0A417082700A0CC2706B
:1051E000090E0171217841714E49898C8171090A3A
:1051F000C17100E088E04B49FF30097AFF30401868
:10520000484908254A7A4A49823904F0C9FA45488A
:10521000017A407A0818C1B24248002E01721FD0AC
:105220000278002A1CD0C279002A22D00F291DD86A
:1052300020783D4A030940181B010007000F034373
:105240002370537100203B4C07E0072055E7235C97
:1052500053556D1C401CEDB280B28842F7D308E074
:105260003048002905D0C279002A02D0314E0170A1
:1052700000272C4C00202F4AE07180322D48FFF788
:10528000EFFE6072002801D00120E071002E14D0E2
:105290002178002911D0244847556D1CEDB2002F0C
:1052A00027D0636A002240190092019302901E4A9F
:1052B000E36C103A3046FFF733F8207806AB291834
:1052C000618300206E46626A0DC6174A1648203A6E
:1052D000E36CFEF783FB144A618B06985054030A73
:1052E00052185370030C000E9370D070091D618327
:1052F00016E000222272636A401900920A4A019362
:105300000290203AE36CD5E7002B09D00446002A2E
:1053100006D0681C314604F043FA2078401C6083B4
:105320000020EAE6BC000020F0060020249E0008D1
:10533000F0090020EE08002010B50C484022416B17
:10534000114341634079002801D0FFF739F907493B
:10535000222219310878104308700121044802F014
:10536000ABFF034802F0BAFF10BD0000BC000020F4
:10537000600A0020FFB505468BB0A94816460C46CA
:10538000099026E1285D641C801EE4B2030003F04E
:1053900056FA0906115E6AA1B0D8F1EFEE00A149F4
:1053A00000204870285D0872641CE0B22A5C4A72D2
:1053B000401C4AE000206946087708A90870694641
:1053C000087208732819401E0490301B401C087591
:1053D0009548934F02798A750999203F0A7B69465F
:1053E0004A757A78CA753A780A76099908AB0A78C4
:1053F00069464A7603AA02A90192009107AA04A964
:10540000C07B00F0E5FB0090C043400709D168462F
:10541000007F787008A8007838706846017A09988B
:105420000170002706E0002203200099FBF710FD21
:105430007F1CFFB268460521007BFAF759FEB8428F
:10544000F1D86846007B2018401EC4B2C1E0295D37
:105450007548641C0122C1728A40C2830022E4B2F2
:1054600011460420B3E0285D4006410F68464170B4
:10547000285D641C0107090F68460170E0B2295CD1
:10548000401CC0B201912A5C401C12021143C0B200
:1054900001912A5C401C12041143C4B208466421E5
:1054A0004843019060486946C07B00F0C5FB014657
:1054B000C84340070BD168460278099802725848E1
:1054C000019A203842626846427809984270002268
:1054D00005207CE05448FF21C06D002804D00068FE
:1054E000002801D0804701460E988206920E0620C1
:1054F0006DE0285D69460874641CE0B20391295C84
:10550000401CC0B200912A5C401C12021143C0B280
:1055100000912A5C401C1204114364225143009103
:1055200000210191C0B22A5C401C6946C4B20A72D3
:105530003D4803A9C07B00F05CFB00220146072028
:1055400045E0285D641C0007000FE4B2002800D18C
:1055500001207D21C900484331497D222039D200F4
:105560000861801800224861114608202FE033E0CE
:1055700034E0FFE7285D00216A46641C1170517019
:10558000E4B2810601D501215170C10601D5012186
:1055900011700007000F907023481146C07B00F087
:1055A0006FFB401C15D06846017809980173684666
:1055B000417809984173684680781C49085CFBF77C
:1055C000A7F8174900222039086311460920FBF784
:1055D0003FFCB44200D2D5E60FB0F0BD285D69466D
:1055E0000870641CE0B2295C401CC0B201912A5CC6
:1055F000401C12021143C0B201912A5C401C1204EB
:105600001143C4B2084664214843019006486946E4
:10561000C07B00F0BDFA002201460A20D7E7000057
:10562000100A0020340B0020BC000020DD9E000882
:1056300070B517490023CA681206120F18D18A6B79
:10564000154CD500134A02D51268224009E08E6B32
:1056500001252D072E438E6312688E6B2240AE43C8
:105660008E63A24204D103218903884200D1012321
:105670000A48016849084900194301600068C007E9
:10568000C00F984201D0012070BD002070BD000005
:10569000001002400070004000180000002002408E
:1056A00001090A2200075143000F4018C0B2704799
:1056B000002102E00A38C0B2491C0A28FAD20907C0
:1056C000090E0843704770B504460068C168490672
:1056D00013D40021C943C160FCF778F87D26054644
:1056E000F60006E0FCF772F8401BB04201D9032037
:1056F00070BD2068C0684006F4D5002070BD10B5AC
:10570000FDF7A0FD10BD70B51C46049B15460E4666
:10571000082801D0002070BD22462946304600F0FE
:10572000B9FA70BD10B5082801D0002010BD084698
:1057300000F0F2FA10BD10B5082802D1084600F0BA
:10574000FBFA10BD70B514460D46082801D0D0B242
:1057500070BD1A462146284600F0F0FA70BD10B51B
:10576000082802D1084600F0F5FA10BD10B5082847
:1057700001D0002010BD084600F008FB10BD30B578
:1057800002460168C07A0C2358430930095C50680E
:105790000B01C45A00250C33C550507A002809D09B
:1057A000907A012805D1106901466143081A5168B1
:1057B000C85030BDD06800F0F7F8844200D92046C8
:1057C000917A002902D1117A002903D01169484346
:1057D000401AECE75068C55030BD10B50B091409EC
:1057E0009C4201D3914201D3002010BD5A000C0706
:1057F000835A240F0121A1408B438352012010BD05
:1058000030B500280AD0002908D0002304E05C004D
:105810000D5B5B1C0553DBB29342F8D330BDFFB583
:105820000E461946099A029800F09DF9002824D0E6
:10583000002425461DE000236F00F15B0120984005
:1058400001420ED0E0180C2148430A994018007A12
:1058500001060A0F0107090F029800F084F90128D8
:105860000BD05B1CDBB2102BE7D310346D1CE4B201
:10587000EDB200988442DED3002004B0F0BDFEB546
:10588000054614460E465800FAF75EFF0090600089
:105890000F460838FAF744FF2A463346FAF742FE25
:1058A0003B46009AFAF78CFD2A463346FAF7A2FEE9
:1058B00003F0E6FCFAF7A8FFA04200D904460998D5
:1058C00004600898FAF740FF009001912046FAF72B
:1058D0003BFF2A463346FAF725FE0022D243FAF769
:1058E00001FF0C460746022228463146FAF7FAFE27
:1058F0003A462346FAF708FE019B009AFAF704FE9F
:1059000003F0BEFCFAF75CFF0A990860FEBD0000D8
:1059100070B506460846FAF717FF054601200C4603
:10592000B040FAF7FDFE2A462346FAF763FE00224E
:10593000014BFAF7F7FD70BD00408F4070B514467B
:105940000D464000FAF7E4FE2946FAF7AEFC214680
:10595000FAF7A7FCFAF776FF03F088FEFAF730FFB4
:1059600040B270BDF0B58446964600206246002ADB
:1059700001D0012215E00020F0BD4C0063461F5B02
:1059800010260024234615469D40BD4301D1641CCA
:10599000E4B25B1CDBB2B342F5D32018491CC0B2A1
:1059A000C9B27145E9D3F0BD0649884201D26420ED
:1059B00070470549884202D27D20C00070470348E5
:1059C0007047000080EE3600803F5C021027000028
:1059D000FFB504460678022083B0205602900325C6
:1059E000042761786557E75700290BD10F2801D1AB
:1059F0000F2D02D000260727E75705202056062541
:105A000002906557002E25D0112020566169019122
:105A100000901023E356207AE168029AFFF7FFFE18
:105A2000002801D1FD20064018221921A2566156F6
:105A3000284600F098F8002807D119202056A842DF
:105A400001DD054601E0FB200640072E02D1002FB4
:105A500000D10127049902980870059805700698EE
:105A60000770304607B0F0BD03780022032B14D135
:105A7000427813071B0F12068B70120F4A70827840
:105A80008A80C3781B021A438A8000794206520F2B
:105A90000007CA70000F08700522104670470028E2
:105AA0008A6000D14A607047FFB50024E44381B0AA
:105AB0001F46002552E0019800280FD002980028C8
:105AC00044D0039829010E18B06802F081FB01460A
:105AD000F06881422BD30020F0603DE0039829015B
